{
  "_format": "hh-sol-artifact-1",
  "contractName": "EthernalInitials",
  "sourceName": "contracts/EthernalInitials.sol",
  "abi": [
    {
      "inputs": [],
      "stateMutability": "nonpayable",
      "type": "constructor"
    },
    {
      "anonymous": false,
      "inputs": [
        {
          "indexed": true,
          "internalType": "address",
          "name": "owner",
          "type": "address"
        },
        {
          "indexed": true,
          "internalType": "address",
          "name": "approved",
          "type": "address"
        },
        {
          "indexed": true,
          "internalType": "uint256",
          "name": "tokenId",
          "type": "uint256"
        }
      ],
      "name": "Approval",
      "type": "event"
    },
    {
      "anonymous": false,
      "inputs": [
        {
          "indexed": true,
          "internalType": "address",
          "name": "owner",
          "type": "address"
        },
        {
          "indexed": true,
          "internalType": "address",
          "name": "operator",
          "type": "address"
        },
        {
          "indexed": false,
          "internalType": "bool",
          "name": "approved",
          "type": "bool"
        }
      ],
      "name": "ApprovalForAll",
      "type": "event"
    },
    {
      "anonymous": false,
      "inputs": [
        {
          "indexed": false,
          "internalType": "address",
          "name": "sender",
          "type": "address"
        },
        {
          "indexed": false,
          "internalType": "uint256",
          "name": "tokenId",
          "type": "uint256"
        }
      ],
      "name": "NewInitialsNFTMinted",
      "type": "event"
    },
    {
      "anonymous": false,
      "inputs": [
        {
          "indexed": true,
          "internalType": "address",
          "name": "previousOwner",
          "type": "address"
        },
        {
          "indexed": true,
          "internalType": "address",
          "name": "newOwner",
          "type": "address"
        }
      ],
      "name": "OwnershipTransferred",
      "type": "event"
    },
    {
      "anonymous": false,
      "inputs": [
        {
          "indexed": true,
          "internalType": "address",
          "name": "from",
          "type": "address"
        },
        {
          "indexed": true,
          "internalType": "address",
          "name": "to",
          "type": "address"
        },
        {
          "indexed": true,
          "internalType": "uint256",
          "name": "tokenId",
          "type": "uint256"
        }
      ],
      "name": "Transfer",
      "type": "event"
    },
    {
      "inputs": [
        {
          "internalType": "address",
          "name": "to",
          "type": "address"
        },
        {
          "internalType": "uint256",
          "name": "tokenId",
          "type": "uint256"
        }
      ],
      "name": "approve",
      "outputs": [],
      "stateMutability": "nonpayable",
      "type": "function"
    },
    {
      "inputs": [
        {
          "internalType": "address",
          "name": "owner",
          "type": "address"
        }
      ],
      "name": "balanceOf",
      "outputs": [
        {
          "internalType": "uint256",
          "name": "",
          "type": "uint256"
        }
      ],
      "stateMutability": "view",
      "type": "function"
    },
    {
      "inputs": [],
      "name": "contractURI",
      "outputs": [
        {
          "internalType": "string",
          "name": "",
          "type": "string"
        }
      ],
      "stateMutability": "pure",
      "type": "function"
    },
    {
      "inputs": [
        {
          "internalType": "uint256",
          "name": "tokenId",
          "type": "uint256"
        }
      ],
      "name": "getApproved",
      "outputs": [
        {
          "internalType": "address",
          "name": "",
          "type": "address"
        }
      ],
      "stateMutability": "view",
      "type": "function"
    },
    {
      "inputs": [
        {
          "internalType": "address",
          "name": "owner",
          "type": "address"
        },
        {
          "internalType": "address",
          "name": "operator",
          "type": "address"
        }
      ],
      "name": "isApprovedForAll",
      "outputs": [
        {
          "internalType": "bool",
          "name": "",
          "type": "bool"
        }
      ],
      "stateMutability": "view",
      "type": "function"
    },
    {
      "inputs": [
        {
          "internalType": "uint256",
          "name": "tokenId",
          "type": "uint256"
        }
      ],
      "name": "mintNFT",
      "outputs": [],
      "stateMutability": "nonpayable",
      "type": "function"
    },
    {
      "inputs": [],
      "name": "name",
      "outputs": [
        {
          "internalType": "string",
          "name": "",
          "type": "string"
        }
      ],
      "stateMutability": "view",
      "type": "function"
    },
    {
      "inputs": [],
      "name": "owner",
      "outputs": [
        {
          "internalType": "address",
          "name": "",
          "type": "address"
        }
      ],
      "stateMutability": "view",
      "type": "function"
    },
    {
      "inputs": [
        {
          "internalType": "uint256",
          "name": "tokenId",
          "type": "uint256"
        }
      ],
      "name": "ownerOf",
      "outputs": [
        {
          "internalType": "address",
          "name": "",
          "type": "address"
        }
      ],
      "stateMutability": "view",
      "type": "function"
    },
    {
      "inputs": [],
      "name": "renounceOwnership",
      "outputs": [],
      "stateMutability": "nonpayable",
      "type": "function"
    },
    {
      "inputs": [
        {
          "internalType": "address",
          "name": "from",
          "type": "address"
        },
        {
          "internalType": "address",
          "name": "to",
          "type": "address"
        },
        {
          "internalType": "uint256",
          "name": "tokenId",
          "type": "uint256"
        }
      ],
      "name": "safeTransferFrom",
      "outputs": [],
      "stateMutability": "nonpayable",
      "type": "function"
    },
    {
      "inputs": [
        {
          "internalType": "address",
          "name": "from",
          "type": "address"
        },
        {
          "internalType": "address",
          "name": "to",
          "type": "address"
        },
        {
          "internalType": "uint256",
          "name": "tokenId",
          "type": "uint256"
        },
        {
          "internalType": "bytes",
          "name": "_data",
          "type": "bytes"
        }
      ],
      "name": "safeTransferFrom",
      "outputs": [],
      "stateMutability": "nonpayable",
      "type": "function"
    },
    {
      "inputs": [
        {
          "internalType": "address",
          "name": "operator",
          "type": "address"
        },
        {
          "internalType": "bool",
          "name": "approved",
          "type": "bool"
        }
      ],
      "name": "setApprovalForAll",
      "outputs": [],
      "stateMutability": "nonpayable",
      "type": "function"
    },
    {
      "inputs": [
        {
          "internalType": "bytes4",
          "name": "interfaceId",
          "type": "bytes4"
        }
      ],
      "name": "supportsInterface",
      "outputs": [
        {
          "internalType": "bool",
          "name": "",
          "type": "bool"
        }
      ],
      "stateMutability": "view",
      "type": "function"
    },
    {
      "inputs": [],
      "name": "symbol",
      "outputs": [
        {
          "internalType": "string",
          "name": "",
          "type": "string"
        }
      ],
      "stateMutability": "view",
      "type": "function"
    },
    {
      "inputs": [
        {
          "internalType": "uint256",
          "name": "",
          "type": "uint256"
        }
      ],
      "name": "tokenBackgrounds",
      "outputs": [
        {
          "internalType": "string",
          "name": "",
          "type": "string"
        }
      ],
      "stateMutability": "view",
      "type": "function"
    },
    {
      "inputs": [
        {
          "internalType": "uint256",
          "name": "tokenId",
          "type": "uint256"
        }
      ],
      "name": "tokenURI",
      "outputs": [
        {
          "internalType": "string",
          "name": "",
          "type": "string"
        }
      ],
      "stateMutability": "view",
      "type": "function"
    },
    {
      "inputs": [],
      "name": "totalSupply",
      "outputs": [
        {
          "internalType": "uint256",
          "name": "",
          "type": "uint256"
        }
      ],
      "stateMutability": "view",
      "type": "function"
    },
    {
      "inputs": [
        {
          "internalType": "address",
          "name": "from",
          "type": "address"
        },
        {
          "internalType": "address",
          "name": "to",
          "type": "address"
        },
        {
          "internalType": "uint256",
          "name": "tokenId",
          "type": "uint256"
        }
      ],
      "name": "transferFrom",
      "outputs": [],
      "stateMutability": "nonpayable",
      "type": "function"
    },
    {
      "inputs": [
        {
          "internalType": "address",
          "name": "newOwner",
          "type": "address"
        }
      ],
      "name": "transferOwnership",
      "outputs": [],
      "stateMutability": "nonpayable",
      "type": "function"
    }
  ],
  "bytecode": "0x60806040526040518060e0016040528060bd81526020016200575360bd9139600a90805190602001906200003592919062000ea7565b506040518060c00160405280608a815260200162006f37608a9139600b90805190602001906200006792919062000ea7565b506040518060400160405280600d81526020017f3c2f746578743e3c2f7376673e00000000000000000000000000000000000000815250600c9080519060200190620000b592919062000ea7565b506040518061034001604052806040518060400160405280600181526020017f410000000000000000000000000000000000000000000000000000000000000081525081526020016040518060400160405280600181526020017f420000000000000000000000000000000000000000000000000000000000000081525081526020016040518060400160405280600181526020017f430000000000000000000000000000000000000000000000000000000000000081525081526020016040518060400160405280600181526020017f440000000000000000000000000000000000000000000000000000000000000081525081526020016040518060400160405280600181526020017f450000000000000000000000000000000000000000000000000000000000000081525081526020016040518060400160405280600181526020017f460000000000000000000000000000000000000000000000000000000000000081525081526020016040518060400160405280600181526020017f470000000000000000000000000000000000000000000000000000000000000081525081526020016040518060400160405280600181526020017f480000000000000000000000000000000000000000000000000000000000000081525081526020016040518060400160405280600181526020017f490000000000000000000000000000000000000000000000000000000000000081525081526020016040518060400160405280600181526020017f4a0000000000000000000000000000000000000000000000000000000000000081525081526020016040518060400160405280600181526020017f4b0000000000000000000000000000000000000000000000000000000000000081525081526020016040518060400160405280600181526020017f4c0000000000000000000000000000000000000000000000000000000000000081525081526020016040518060400160405280600181526020017f4d0000000000000000000000000000000000000000000000000000000000000081525081526020016040518060400160405280600181526020017f4e0000000000000000000000000000000000000000000000000000000000000081525081526020016040518060400160405280600181526020017f4f0000000000000000000000000000000000000000000000000000000000000081525081526020016040518060400160405280600181526020017f500000000000000000000000000000000000000000000000000000000000000081525081526020016040518060400160405280600181526020017f510000000000000000000000000000000000000000000000000000000000000081525081526020016040518060400160405280600181526020017f520000000000000000000000000000000000000000000000000000000000000081525081526020016040518060400160405280600181526020017f530000000000000000000000000000000000000000000000000000000000000081525081526020016040518060400160405280600181526020017f540000000000000000000000000000000000000000000000000000000000000081525081526020016040518060400160405280600181526020017f550000000000000000000000000000000000000000000000000000000000000081525081526020016040518060400160405280600181526020017f560000000000000000000000000000000000000000000000000000000000000081525081526020016040518060400160405280600181526020017f570000000000000000000000000000000000000000000000000000000000000081525081526020016040518060400160405280600181526020017f580000000000000000000000000000000000000000000000000000000000000081525081526020016040518060400160405280600181526020017f590000000000000000000000000000000000000000000000000000000000000081525081526020016040518060400160405280600181526020017f5a00000000000000000000000000000000000000000000000000000000000000815250815250600e90601a620006d092919062000f38565b506040518061014001604052806040518060400160405280600181526020017f300000000000000000000000000000000000000000000000000000000000000081525081526020016040518060400160405280600181526020017f310000000000000000000000000000000000000000000000000000000000000081525081526020016040518060400160405280600181526020017f320000000000000000000000000000000000000000000000000000000000000081525081526020016040518060400160405280600181526020017f330000000000000000000000000000000000000000000000000000000000000081525081526020016040518060400160405280600181526020017f340000000000000000000000000000000000000000000000000000000000000081525081526020016040518060400160405280600181526020017f350000000000000000000000000000000000000000000000000000000000000081525081526020016040518060400160405280600181526020017f360000000000000000000000000000000000000000000000000000000000000081525081526020016040518060400160405280600181526020017f370000000000000000000000000000000000000000000000000000000000000081525081526020016040518060400160405280600181526020017f380000000000000000000000000000000000000000000000000000000000000081525081526020016040518060400160405280600181526020017f3900000000000000000000000000000000000000000000000000000000000000815250815250600f90600a6200093b92919062000f9f565b503480156200094957600080fd5b506040518060400160405280601181526020017f45746865726e616c20496e697469616c730000000000000000000000000000008152506040518060400160405280600481526020017f41415a5a000000000000000000000000000000000000000000000000000000008152508160009080519060200190620009ce92919062000ea7565b508060019080519060200190620009e792919062000ea7565b50505062000a0a620009fe62000dd960201b60201c565b62000de160201b60201c565b6040518061020001604052806101d1815260200162006af56101d19139600d60405162000a37906200144c565b9081526020016040518091039020908051906020019062000a5a92919062000ea7565b50604051806102e001604052806102c08152602001620070ff6102c09139600d60405162000a8890620013d9565b9081526020016040518091039020908051906020019062000aab92919062000ea7565b5060405180610240016040528061020c8152602001620073bf61020c9139600d60405162000ad990620013c2565b9081526020016040518091039020908051906020019062000afc92919062000ea7565b50604051806101a001604052806101768152602001620062826101769139600d60405162000b2a9062001407565b9081526020016040518091039020908051906020019062000b4d92919062000ea7565b506040518061072001604052806106fd8152602001620063f86106fd9139600d60405162000b7b9062001435565b9081526020016040518091039020908051906020019062000b9e92919062000ea7565b50604051806102a0016040528061026d81526020016200581061026d9139600d60405162000bcc90620013f0565b9081526020016040518091039020908051906020019062000bef92919062000ea7565b50604051806106a0016040528061067681526020016200768b6106769139600d60405162000c1d90620013ab565b9081526020016040518091039020908051906020019062000c4092919062000ea7565b5060405180610160016040528061013e815260200162006fc161013e9139600d60405162000c6e9062001463565b9081526020016040518091039020908051906020019062000c9192919062000ea7565b506040518061022001604052806101f581526020016200555e6101f59139600d60405162000cbf9062001491565b9081526020016040518091039020908051906020019062000ce292919062000ea7565b50604051806108400160405280610805815260200162005a7d6108059139600d60405162000d10906200147a565b9081526020016040518091039020908051906020019062000d3392919062000ea7565b50604051806102a00160405280610271815260200162006cc66102719139600d60405162000d61906200141e565b9081526020016040518091039020908051906020019062000d8492919062000ea7565b506040518060e0016040528060c08152602001620075cb60c09139600d60405162000daf90620014a8565b9081526020016040518091039020908051906020019062000dd292919062000ea7565b506200152f565b600033905090565b6000600760009054906101000a900473ffffffffffffffffffffffffffffffffffffffff16905081600760006101000a81548173ffffffffffffffffffffffffffffffffffffffff021916908373ffffffffffffffffffffffffffffffffffffffff1602179055508173ffffffffffffffffffffffffffffffffffffffff168173ffffffffffffffffffffffffffffffffffffffff167f8be0079c531659141344cd1fd0a4f28419497f9722a3daafe3b4186f6b6457e060405160405180910390a35050565b82805462000eb590620014ca565b90600052602060002090601f01602090048101928262000ed9576000855562000f25565b82601f1062000ef457805160ff191683800117855562000f25565b8280016001018555821562000f25579182015b8281111562000f2457825182559160200191906001019062000f07565b5b50905062000f34919062001006565b5090565b82805482825590600052602060002090810192821562000f8c579160200282015b8281111562000f8b57825182908051906020019062000f7a92919062000ea7565b509160200191906001019062000f59565b5b50905062000f9b919062001025565b5090565b82805482825590600052602060002090810192821562000ff3579160200282015b8281111562000ff257825182908051906020019062000fe192919062000ea7565b509160200191906001019062000fc0565b5b50905062001002919062001025565b5090565b5b808211156200102157600081600090555060010162001007565b5090565b5b808211156200104957600081816200103f91906200104d565b5060010162001026565b5090565b5080546200105b90620014ca565b6000825580601f106200106f575062001090565b601f0160209004906000526020600020908101906200108f919062001006565b5b50565b6000620010a2600583620014bf565b91507f53746172730000000000000000000000000000000000000000000000000000006000830152600582019050919050565b6000620010e4600983620014bf565b91507f43686f636f6c61746500000000000000000000000000000000000000000000006000830152600982019050919050565b600062001126600483620014bf565b91507f476f6c64000000000000000000000000000000000000000000000000000000006000830152600482019050919050565b600062001168600883620014bf565b91507f5363726962626c650000000000000000000000000000000000000000000000006000830152600882019050919050565b6000620011aa600583620014bf565b91507f47696674730000000000000000000000000000000000000000000000000000006000830152600582019050919050565b6000620011ec600583620014bf565b91507f41746f6d730000000000000000000000000000000000000000000000000000006000830152600582019050919050565b60006200122e600983620014bf565b91507f526164696174696f6e00000000000000000000000000000000000000000000006000830152600982019050919050565b600062001270600583620014bf565b91507f45746865720000000000000000000000000000000000000000000000000000006000830152600582019050919050565b6000620012b2600883620014bf565b91507f436865636b6572730000000000000000000000000000000000000000000000006000830152600882019050919050565b6000620012f4600583620014bf565b91507f486f6e65790000000000000000000000000000000000000000000000000000006000830152600582019050919050565b600062001336600483620014bf565b91507f576f6f6c000000000000000000000000000000000000000000000000000000006000830152600482019050919050565b600062001378600583620014bf565b91507f426c61636b0000000000000000000000000000000000000000000000000000006000830152600582019050919050565b6000620013b88262001093565b9150819050919050565b6000620013cf82620010d5565b9150819050919050565b6000620013e68262001117565b9150819050919050565b6000620013fd8262001159565b9150819050919050565b600062001414826200119b565b9150819050919050565b60006200142b82620011dd565b9150819050919050565b600062001442826200121f565b9150819050919050565b6000620014598262001261565b9150819050919050565b60006200147082620012a3565b9150819050919050565b60006200148782620012e5565b9150819050919050565b60006200149e8262001327565b9150819050919050565b6000620014b58262001369565b9150819050919050565b600081905092915050565b60006002820490506001821680620014e357607f821691505b60208210811415620014fa57620014f962001500565b5b50919050565b7f4e487b7100000000000000000000000000000000000000000000000000000000600052602260045260246000fd5b61401f806200153f6000396000f3fe608060405234801561001057600080fd5b506004361061012c5760003560e01c80638da5cb5b116100ad578063b88d4fde11610071578063b88d4fde1461032f578063c87b56dd1461034b578063e8a3d4851461037b578063e985e9c514610399578063f2fde38b146103c95761012c565b80638da5cb5b1461028b57806392642744146102a957806392c6d352146102c557806395d89b41146102f5578063a22cb465146103135761012c565b806323b872dd116100f457806323b872dd146101e957806342842e0e146102055780636352211e1461022157806370a0823114610251578063715018a6146102815761012c565b806301ffc9a71461013157806306fdde0314610161578063081812fc1461017f578063095ea7b3146101af57806318160ddd146101cb575b600080fd5b61014b60048036038101906101469190612823565b6103e5565b60405161015891906135ad565b60405180910390f35b6101696104c7565b60405161017691906135c8565b60405180910390f35b61019960048036038101906101949190612875565b610559565b6040516101a6919061351d565b60405180910390f35b6101c960048036038101906101c491906127e7565b6105de565b005b6101d36106f6565b6040516101e0919061380a565b60405180910390f35b61020360048036038101906101fe91906126e1565b610707565b005b61021f600480360381019061021a91906126e1565b610767565b005b61023b60048036038101906102369190612875565b610787565b604051610248919061351d565b60405180910390f35b61026b6004803603810190610266919061267c565b610839565b604051610278919061380a565b60405180910390f35b6102896108f1565b005b610293610979565b6040516102a0919061351d565b60405180910390f35b6102c360048036038101906102be9190612875565b6109a3565b005b6102df60048036038101906102da9190612875565b610a84565b6040516102ec91906135c8565b60405180910390f35b6102fd610b24565b60405161030a91906135c8565b60405180910390f35b61032d600480360381019061032891906127ab565b610bb6565b005b61034960048036038101906103449190612730565b610d37565b005b61036560048036038101906103609190612875565b610d99565b60405161037291906135c8565b60405180910390f35b61038361100d565b60405161039091906135c8565b60405180910390f35b6103b360048036038101906103ae91906126a5565b611090565b6040516103c091906135ad565b60405180910390f35b6103e360048036038101906103de919061267c565b611124565b005b60007f80ac58cd000000000000000000000000000000000000000000000000000000007bffffffffffffffffffffffffffffffffffffffffffffffffffffffff1916827bffffffffffffffffffffffffffffffffffffffffffffffffffffffff191614806104b057507f5b5e139f000000000000000000000000000000000000000000000000000000007bffffffffffffffffffffffffffffffffffffffffffffffffffffffff1916827bffffffffffffffffffffffffffffffffffffffffffffffffffffffff1916145b806104c057506104bf8261121c565b5b9050919050565b6060600080546104d690613ad9565b80601f016020809104026020016040519081016040528092919081815260200182805461050290613ad9565b801561054f5780601f106105245761010080835404028352916020019161054f565b820191906000526020600020905b81548152906001019060200180831161053257829003601f168201915b5050505050905090565b600061056482611286565b6105a3576040517f08c379a000000000000000000000000000000000000000000000000000000000815260040161059a9061374a565b60405180910390fd5b6004600083815260200190815260200160002060009054906101000a900473ffffffffffffffffffffffffffffffffffffffff169050919050565b60006105e982610787565b90508073ffffffffffffffffffffffffffffffffffffffff168373ffffffffffffffffffffffffffffffffffffffff16141561065a576040517f08c379a0000000000000000000000000000000000000000000000000000000008152600401610651906137ca565b60405180910390fd5b8073ffffffffffffffffffffffffffffffffffffffff166106796112f2565b73ffffffffffffffffffffffffffffffffffffffff1614806106a857506106a7816106a26112f2565b611090565b5b6106e7576040517f08c379a00000000000000000000000000000000000000000000000000000000081526004016106de906136aa565b60405180910390fd5b6106f183836112fa565b505050565b600061070260096113b3565b905090565b6107186107126112f2565b826113c1565b610757576040517f08c379a000000000000000000000000000000000000000000000000000000000815260040161074e906137ea565b60405180910390fd5b61076283838361149f565b505050565b61078283838360405180602001604052806000815250610d37565b505050565b6000806002600084815260200190815260200160002060009054906101000a900473ffffffffffffffffffffffffffffffffffffffff169050600073ffffffffffffffffffffffffffffffffffffffff168173ffffffffffffffffffffffffffffffffffffffff161415610830576040517f08c379a0000000000000000000000000000000000000000000000000000000008152600401610827906136ea565b60405180910390fd5b80915050919050565b60008073ffffffffffffffffffffffffffffffffffffffff168273ffffffffffffffffffffffffffffffffffffffff1614156108aa576040517f08c379a00000000000000000000000000000000000000000000000000000000081526004016108a1906136ca565b60405180910390fd5b600360008373ffffffffffffffffffffffffffffffffffffffff1673ffffffffffffffffffffffffffffffffffffffff168152602001908152602001600020549050919050565b6108f96112f2565b73ffffffffffffffffffffffffffffffffffffffff16610917610979565b73ffffffffffffffffffffffffffffffffffffffff161461096d576040517f08c379a00000000000000000000000000000000000000000000000000000000081526004016109649061376a565b60405180910390fd5b61097760006116fb565b565b6000600760009054906101000a900473ffffffffffffffffffffffffffffffffffffffff16905090565b600081101580156109b5575061030881105b6109f4576040517f08c379a00000000000000000000000000000000000000000000000000000000081526004016109eb9061378a565b60405180910390fd5b60006109ff826117c1565b9050610a0b8282611b46565b610a153383611be2565b610a1f6009611c00565b80600860008481526020019081526020016000209080519060200190610a46929190612508565b507fa67e0500ba2f1df0a8c829f88b59ecc73d1977915a4d3571fa6028d9a9b69abb3383604051610a78929190613584565b60405180910390a15050565b60086020528060005260406000206000915090508054610aa390613ad9565b80601f0160208091040260200160405190810160405280929190818152602001828054610acf90613ad9565b8015610b1c5780601f10610af157610100808354040283529160200191610b1c565b820191906000526020600020905b815481529060010190602001808311610aff57829003601f168201915b505050505081565b606060018054610b3390613ad9565b80601f0160208091040260200160405190810160405280929190818152602001828054610b5f90613ad9565b8015610bac5780601f10610b8157610100808354040283529160200191610bac565b820191906000526020600020905b815481529060010190602001808311610b8f57829003601f168201915b5050505050905090565b610bbe6112f2565b73ffffffffffffffffffffffffffffffffffffffff168273ffffffffffffffffffffffffffffffffffffffff161415610c2c576040517f08c379a0000000000000000000000000000000000000000000000000000000008152600401610c239061366a565b60405180910390fd5b8060056000610c396112f2565b73ffffffffffffffffffffffffffffffffffffffff1673ffffffffffffffffffffffffffffffffffffffff16815260200190815260200160002060008473ffffffffffffffffffffffffffffffffffffffff1673ffffffffffffffffffffffffffffffffffffffff16815260200190815260200160002060006101000a81548160ff0219169083151502179055508173ffffffffffffffffffffffffffffffffffffffff16610ce66112f2565b73ffffffffffffffffffffffffffffffffffffffff167f17307eab39ab6107e8899845ad3d59bd9653f200f220920489ca2b5937696c3183604051610d2b91906135ad565b60405180910390a35050565b610d48610d426112f2565b836113c1565b610d87576040517f08c379a0000000000000000000000000000000000000000000000000000000008152600401610d7e906137ea565b60405180910390fd5b610d9384848484611c16565b50505050565b6060610da482611286565b610de3576040517f08c379a0000000000000000000000000000000000000000000000000000000008152600401610dda9061372a565b60405180910390fd5b6000600860008481526020019081526020016000208054610e0390613ad9565b80601f0160208091040260200160405190810160405280929190818152602001828054610e2f90613ad9565b8015610e7c5780601f10610e5157610100808354040283529160200191610e7c565b820191906000526020600020905b815481529060010190602001808311610e5f57829003601f168201915b505050505090506000610e8e84611c72565b90506000610e9b85611dc4565b905060008282604051602001610eb2929190613384565b60405160208183030381529060405290506000600d85604051610ed5919061336d565b90815260200160405180910390208054610eee90613ad9565b80601f0160208091040260200160405190810160405280929190818152602001828054610f1a90613ad9565b8015610f675780601f10610f3c57610100808354040283529160200191610f67565b820191906000526020600020905b815481529060010190602001808311610f4a57829003601f168201915b505050505090506000600a82600b85600c604051602001610f8c9594939291906133a8565b60405160208183030381529060405290506000610fd7848589610fae86611f16565b8b604051602001610fc3959493929190613420565b604051602081830303815290604052611f16565b9050600081604051602001610fec91906134ad565b60405160208183030381529060405290508098505050505050505050919050565b606060006040518061034001604052806103098152602001613ce161030991399050600061106161103d83611f16565b60405160200161104d91906133f3565b604051602081830303815290604052611f16565b905060008160405160200161107691906134ad565b604051602081830303815290604052905080935050505090565b6000600560008473ffffffffffffffffffffffffffffffffffffffff1673ffffffffffffffffffffffffffffffffffffffff16815260200190815260200160002060008373ffffffffffffffffffffffffffffffffffffffff1673ffffffffffffffffffffffffffffffffffffffff16815260200190815260200160002060009054906101000a900460ff16905092915050565b61112c6112f2565b73ffffffffffffffffffffffffffffffffffffffff1661114a610979565b73ffffffffffffffffffffffffffffffffffffffff16146111a0576040517f08c379a00000000000000000000000000000000000000000000000000000000081526004016111979061376a565b60405180910390fd5b600073ffffffffffffffffffffffffffffffffffffffff168173ffffffffffffffffffffffffffffffffffffffff161415611210576040517f08c379a00000000000000000000000000000000000000000000000000000000081526004016112079061360a565b60405180910390fd5b611219816116fb565b50565b60007f01ffc9a7000000000000000000000000000000000000000000000000000000007bffffffffffffffffffffffffffffffffffffffffffffffffffffffff1916827bffffffffffffffffffffffffffffffffffffffffffffffffffffffff1916149050919050565b60008073ffffffffffffffffffffffffffffffffffffffff166002600084815260200190815260200160002060009054906101000a900473ffffffffffffffffffffffffffffffffffffffff1673ffffffffffffffffffffffffffffffffffffffff1614159050919050565b600033905090565b816004600083815260200190815260200160002060006101000a81548173ffffffffffffffffffffffffffffffffffffffff021916908373ffffffffffffffffffffffffffffffffffffffff160217905550808273ffffffffffffffffffffffffffffffffffffffff1661136d83610787565b73ffffffffffffffffffffffffffffffffffffffff167f8c5be1e5ebec7d5bd14f71427d1e84f3dd0314c0f7b2291e5b200ac8c7c3b92560405160405180910390a45050565b600081600001549050919050565b60006113cc82611286565b61140b576040517f08c379a00000000000000000000000000000000000000000000000000000000081526004016114029061368a565b60405180910390fd5b600061141683610787565b90508073ffffffffffffffffffffffffffffffffffffffff168473ffffffffffffffffffffffffffffffffffffffff16148061148557508373ffffffffffffffffffffffffffffffffffffffff1661146d84610559565b73ffffffffffffffffffffffffffffffffffffffff16145b8061149657506114958185611090565b5b91505092915050565b8273ffffffffffffffffffffffffffffffffffffffff166114bf82610787565b73ffffffffffffffffffffffffffffffffffffffff1614611515576040517f08c379a000000000000000000000000000000000000000000000000000000000815260040161150c906137aa565b60405180910390fd5b600073ffffffffffffffffffffffffffffffffffffffff168273ffffffffffffffffffffffffffffffffffffffff161415611585576040517f08c379a000000000000000000000000000000000000000000000000000000000815260040161157c9061364a565b60405180910390fd5b6115908383836120d4565b61159b6000826112fa565b6001600360008573ffffffffffffffffffffffffffffffffffffffff1673ffffffffffffffffffffffffffffffffffffffff16815260200190815260200160002060008282546115eb91906139ef565b925050819055506001600360008473ffffffffffffffffffffffffffffffffffffffff1673ffffffffffffffffffffffffffffffffffffffff1681526020019081526020016000206000828254611642919061390e565b92505081905550816002600083815260200190815260200160002060006101000a81548173ffffffffffffffffffffffffffffffffffffffff021916908373ffffffffffffffffffffffffffffffffffffffff160217905550808273ffffffffffffffffffffffffffffffffffffffff168473ffffffffffffffffffffffffffffffffffffffff167fddf252ad1be2c89b69c2b068fc378daa952ba7f163c4a11628f55a4df523b3ef60405160405180910390a4505050565b6000600760009054906101000a900473ffffffffffffffffffffffffffffffffffffffff16905081600760006101000a81548173ffffffffffffffffffffffffffffffffffffffff021916908373ffffffffffffffffffffffffffffffffffffffff1602179055508173ffffffffffffffffffffffffffffffffffffffff168173ffffffffffffffffffffffffffffffffffffffff167f8be0079c531659141344cd1fd0a4f28419497f9722a3daafe3b4186f6b6457e060405160405180910390a35050565b606060006117f3434233866040516020016117df94939291906134cf565b6040516020818303038152906040526120d9565b90506064816118029190613b39565b9050600081141561184b576040518060400160405280600581526020017f4574686572000000000000000000000000000000000000000000000000000000815250915050611b41565b60038111611891576040518060400160405280600481526020017f476f6c6400000000000000000000000000000000000000000000000000000000815250915050611b41565b600881116118d7576040518060400160405280600981526020017f43686f636f6c6174650000000000000000000000000000000000000000000000815250915050611b41565b600d811161191d576040518060400160405280600581526020017f4769667473000000000000000000000000000000000000000000000000000000815250915050611b41565b60148111611963576040518060400160405280600981526020017f526164696174696f6e0000000000000000000000000000000000000000000000815250915050611b41565b601b81116119a9576040518060400160405280600881526020017f5363726962626c65000000000000000000000000000000000000000000000000815250915050611b41565b602281116119ef576040518060400160405280600581526020017f5374617273000000000000000000000000000000000000000000000000000000815250915050611b41565b602c8111611a35576040518060400160405280600881526020017f436865636b657273000000000000000000000000000000000000000000000000815250915050611b41565b60368111611a7b576040518060400160405280600481526020017f576f6f6c00000000000000000000000000000000000000000000000000000000815250915050611b41565b60408111611ac1576040518060400160405280600581526020017f486f6e6579000000000000000000000000000000000000000000000000000000815250915050611b41565b604a8111611b07576040518060400160405280600581526020017f41746f6d73000000000000000000000000000000000000000000000000000000815250915050611b41565b6040518060400160405280600581526020017f426c61636b0000000000000000000000000000000000000000000000000000008152509150505b919050565b611bde8282604051602401611b5c929190613825565b6040516020818303038152906040527f0fa3f345000000000000000000000000000000000000000000000000000000007bffffffffffffffffffffffffffffffffffffffffffffffffffffffff19166020820180517bffffffffffffffffffffffffffffffffffffffffffffffffffffffff838183161783525050505061210c565b5050565b611bfc828260405180602001604052806000815250612135565b5050565b6001816000016000828254019250508190555050565b611c2184848461149f565b611c2d84848484612190565b611c6c576040517f08c379a0000000000000000000000000000000000000000000000000000000008152600401611c63906135ea565b60405180910390fd5b50505050565b606060648210611ce057600e8080549050606484611c9091906139ef565b611c9a9190613964565b81548110611cd1577f4e487b7100000000000000000000000000000000000000000000000000000000600052603260045260246000fd5b90600052602060002001611d34565b600f808054905083611cf29190613964565b81548110611d29577f4e487b7100000000000000000000000000000000000000000000000000000000600052603260045260246000fd5b906000526020600020015b8054611d3f90613ad9565b80601f0160208091040260200160405190810160405280929190818152602001828054611d6b90613ad9565b8015611db85780601f10611d8d57610100808354040283529160200191611db8565b820191906000526020600020905b815481529060010190602001808311611d9b57829003601f168201915b50505050509050919050565b606060648210611e3257600e8080549050606484611de291906139ef565b611dec9190613b39565b81548110611e23577f4e487b7100000000000000000000000000000000000000000000000000000000600052603260045260246000fd5b90600052602060002001611e86565b600f808054905083611e449190613b39565b81548110611e7b577f4e487b7100000000000000000000000000000000000000000000000000000000600052603260045260246000fd5b906000526020600020015b8054611e9190613ad9565b80601f0160208091040260200160405190810160405280929190818152602001828054611ebd90613ad9565b8015611f0a5780601f10611edf57610100808354040283529160200191611f0a565b820191906000526020600020905b815481529060010190602001808311611eed57829003601f168201915b50505050509050919050565b60606000825190506000811415611f3f57604051806020016040528060008152509150506120cf565b60006003600283611f50919061390e565b611f5a9190613964565b6004611f669190613995565b90506000602082611f77919061390e565b67ffffffffffffffff811115611fb6577f4e487b7100000000000000000000000000000000000000000000000000000000600052604160045260246000fd5b6040519080825280601f01601f191660200182016040528015611fe85781602001600182028036833780820191505090505b5090506000604051806060016040528060408152602001613ca1604091399050600181016020830160005b8681101561208c5760038101905062ffffff818a015116603f8160121c168401518060081b905060ff603f83600c1c1686015116810190508060081b905060ff603f8360061c1686015116810190508060081b905060ff603f831686015116810190508060e01b90508084526004840193505050612013565b5060038606600181146120a657600281146120b6576120c1565b613d3d60f01b60028303526120c1565b603d60f81b60018303525b508484525050819450505050505b919050565b505050565b6000816040516020016120ec919061336d565b6040516020818303038152906040528051906020012060001c9050919050565b60008151905060006a636f6e736f6c652e6c6f679050602083016000808483855afa5050505050565b61213f8383612327565b61214c6000848484612190565b61218b576040517f08c379a0000000000000000000000000000000000000000000000000000000008152600401612182906135ea565b60405180910390fd5b505050565b60006121b18473ffffffffffffffffffffffffffffffffffffffff166124f5565b1561231a578373ffffffffffffffffffffffffffffffffffffffff1663150b7a026121da6112f2565b8786866040518563ffffffff1660e01b81526004016121fc9493929190613538565b602060405180830381600087803b15801561221657600080fd5b505af192505050801561224757506040513d601f19601f82011682018060405250810190612244919061284c565b60015b6122ca573d8060008114612277576040519150601f19603f3d011682016040523d82523d6000602084013e61227c565b606091505b506000815114156122c2576040517f08c379a00000000000000000000000000000000000000000000000000000000081526004016122b9906135ea565b60405180910390fd5b805181602001fd5b63150b7a0260e01b7bffffffffffffffffffffffffffffffffffffffffffffffffffffffff1916817bffffffffffffffffffffffffffffffffffffffffffffffffffffffff19161491505061231f565b600190505b949350505050565b600073ffffffffffffffffffffffffffffffffffffffff168273ffffffffffffffffffffffffffffffffffffffff161415612397576040517f08c379a000000000000000000000000000000000000000000000000000000000815260040161238e9061370a565b60405180910390fd5b6123a081611286565b156123e0576040517f08c379a00000000000000000000000000000000000000000000000000000000081526004016123d79061362a565b60405180910390fd5b6123ec600083836120d4565b6001600360008473ffffffffffffffffffffffffffffffffffffffff1673ffffffffffffffffffffffffffffffffffffffff168152602001908152602001600020600082825461243c919061390e565b92505081905550816002600083815260200190815260200160002060006101000a81548173ffffffffffffffffffffffffffffffffffffffff021916908373ffffffffffffffffffffffffffffffffffffffff160217905550808273ffffffffffffffffffffffffffffffffffffffff16600073ffffffffffffffffffffffffffffffffffffffff167fddf252ad1be2c89b69c2b068fc378daa952ba7f163c4a11628f55a4df523b3ef60405160405180910390a45050565b600080823b905060008111915050919050565b82805461251490613ad9565b90600052602060002090601f016020900481019282612536576000855561257d565b82601f1061254f57805160ff191683800117855561257d565b8280016001018555821561257d579182015b8281111561257c578251825591602001919060010190612561565b5b50905061258a919061258e565b5090565b5b808211156125a757600081600090555060010161258f565b5090565b60006125be6125b984613886565b613855565b9050828152602081018484840111156125d657600080fd5b6125e1848285613a97565b509392505050565b6000813590506125f881613c44565b92915050565b60008135905061260d81613c5b565b92915050565b60008135905061262281613c72565b92915050565b60008151905061263781613c72565b92915050565b600082601f83011261264e57600080fd5b813561265e8482602086016125ab565b91505092915050565b60008135905061267681613c89565b92915050565b60006020828403121561268e57600080fd5b600061269c848285016125e9565b91505092915050565b600080604083850312156126b857600080fd5b60006126c6858286016125e9565b92505060206126d7858286016125e9565b9150509250929050565b6000806000606084860312156126f657600080fd5b6000612704868287016125e9565b9350506020612715868287016125e9565b925050604061272686828701612667565b9150509250925092565b6000806000806080858703121561274657600080fd5b6000612754878288016125e9565b9450506020612765878288016125e9565b935050604061277687828801612667565b925050606085013567ffffffffffffffff81111561279357600080fd5b61279f8782880161263d565b91505092959194509250565b600080604083850312156127be57600080fd5b60006127cc858286016125e9565b92505060206127dd858286016125fe565b9150509250929050565b600080604083850312156127fa57600080fd5b6000612808858286016125e9565b925050602061281985828601612667565b9150509250929050565b60006020828403121561283557600080fd5b600061284384828501612613565b91505092915050565b60006020828403121561285e57600080fd5b600061286c84828501612628565b91505092915050565b60006020828403121561288757600080fd5b600061289584828501612667565b91505092915050565b6128a781613a23565b82525050565b6128be6128b982613a23565b613b0b565b82525050565b6128cd81613a35565b82525050565b60006128de826138cb565b6128e881856138e1565b93506128f8818560208601613aa6565b61290181613c26565b840191505092915050565b6000612917826138d6565b61292181856138f2565b9350612931818560208601613aa6565b61293a81613c26565b840191505092915050565b6000612950826138d6565b61295a8185613903565b935061296a818560208601613aa6565b80840191505092915050565b6000815461298381613ad9565b61298d8186613903565b945060018216600081146129a857600181146129b9576129ec565b60ff198316865281860193506129ec565b6129c2856138b6565b60005b838110156129e4578154818901526001820191506020810190506129c5565b838801955050505b50505092915050565b6000612a02601383613903565b91507f222c20226465736372697074696f6e223a2022000000000000000000000000006000830152601382019050919050565b6000612a426032836138f2565b91507f4552433732313a207472616e7366657220746f206e6f6e20455243373231526560008301527f63656976657220696d706c656d656e74657200000000000000000000000000006020830152604082019050919050565b6000612aa8600783613903565b91507f204c6f76657320000000000000000000000000000000000000000000000000006000830152600782019050919050565b6000612ae8603983613903565b91507f222c202261747472696275746573223a205b7b2274726169745f74797065223a60008301527f20224261636b67726f756e64222c202276616c7565223a2022000000000000006020830152603982019050919050565b6000612b4e6026836138f2565b91507f4f776e61626c653a206e6577206f776e657220697320746865207a65726f206160008301527f64647265737300000000000000000000000000000000000000000000000000006020830152604082019050919050565b6000612bb4601c836138f2565b91507f4552433732313a20746f6b656e20616c7265616479206d696e746564000000006000830152602082019050919050565b6000612bf46024836138f2565b91507f4552433732313a207472616e7366657220746f20746865207a65726f2061646460008301527f72657373000000000000000000000000000000000000000000000000000000006020830152604082019050919050565b6000612c5a6019836138f2565b91507f4552433732313a20617070726f766520746f2063616c6c6572000000000000006000830152602082019050919050565b6000612c9a602c836138f2565b91507f4552433732313a206f70657261746f7220717565727920666f72206e6f6e657860008301527f697374656e7420746f6b656e00000000000000000000000000000000000000006020830152604082019050919050565b6000612d0060ac83613903565b91507f7b226e616d65223a202245746865726e616c20496e697469616c73222c20226460008301527f65736372697074696f6e223a2022416e20696e697469616c732070616972206660208301527f726f6d20414120746f205a5a2c20616e6420303020746f20393920746861742060408301527f77696c6c206c69766520666f7220657465726e69747920696e2074686973207260608301527f65616c6d2e222c2022696d616765223a2022646174613a696d6167652f73766760808301527f2b786d6c3b6261736536342c000000000000000000000000000000000000000060a083015260ac82019050919050565b6000612dfe6038836138f2565b91507f4552433732313a20617070726f76652063616c6c6572206973206e6f74206f7760008301527f6e6572206e6f7220617070726f76656420666f7220616c6c00000000000000006020830152604082019050919050565b6000612e64602a836138f2565b91507f4552433732313a2062616c616e636520717565727920666f7220746865207a6560008301527f726f2061646472657373000000000000000000000000000000000000000000006020830152604082019050919050565b6000612eca6029836138f2565b91507f4552433732313a206f776e657220717565727920666f72206e6f6e657869737460008301527f656e7420746f6b656e00000000000000000000000000000000000000000000006020830152604082019050919050565b6000612f30600283613903565b91507f227d0000000000000000000000000000000000000000000000000000000000006000830152600282019050919050565b6000612f706020836138f2565b91507f4552433732313a206d696e7420746f20746865207a65726f20616464726573736000830152602082019050919050565b6000612fb06031836138f2565b91507f45524337323155524953746f726167653a2055524920717565727920666f722060008301527f6e6f6e6578697374656e7420746f6b656e0000000000000000000000000000006020830152604082019050919050565b6000613016602c836138f2565b91507f4552433732313a20617070726f76656420717565727920666f72206e6f6e657860008301527f697374656e7420746f6b656e00000000000000000000000000000000000000006020830152604082019050919050565b600061307c6020836138f2565b91507f4f776e61626c653a2063616c6c6572206973206e6f7420746865206f776e65726000830152602082019050919050565b60006130bc6010836138f2565b91507f546f6b656e20494420696e76616c6964000000000000000000000000000000006000830152602082019050919050565b60006130fc6029836138f2565b91507f4552433732313a207472616e73666572206f6620746f6b656e2074686174206960008301527f73206e6f74206f776e00000000000000000000000000000000000000000000006020830152604082019050919050565b6000613162602783613903565b91507f222c2022696d616765223a2022646174613a696d6167652f7376672b786d6c3b60008301527f6261736536342c000000000000000000000000000000000000000000000000006020830152602782019050919050565b60006131c8600a83613903565b91507f7b226e616d65223a2022000000000000000000000000000000000000000000006000830152600a82019050919050565b60006132086021836138f2565b91507f4552433732313a20617070726f76616c20746f2063757272656e74206f776e6560008301527f72000000000000000000000000000000000000000000000000000000000000006020830152604082019050919050565b600061326e601d83613903565b91507f646174613a6170706c69636174696f6e2f6a736f6e3b6261736536342c0000006000830152601d82019050919050565b60006132ae6031836138f2565b91507f4552433732313a207472616e736665722063616c6c6572206973206e6f74206f60008301527f776e6572206e6f7220617070726f7665640000000000000000000000000000006020830152604082019050919050565b6000613314600483613903565b91507f227d5d7d000000000000000000000000000000000000000000000000000000006000830152600482019050919050565b61335081613a8d565b82525050565b61336761336282613a8d565b613b2f565b82525050565b60006133798284612945565b915081905092915050565b60006133908285612945565b915061339c8284612945565b91508190509392505050565b60006133b48288612976565b91506133c08287612945565b91506133cc8286612976565b91506133d88285612945565b91506133e48284612976565b91508190509695505050505050565b60006133fe82612cf3565b915061340a8284612945565b915061341582612f23565b915081905092915050565b600061342b826131bb565b91506134378288612945565b9150613442826129f5565b915061344e8287612945565b915061345982612a9b565b91506134658286612945565b915061347082613155565b915061347c8285612945565b915061348782612adb565b91506134938284612945565b915061349e82613307565b91508190509695505050505050565b60006134b882613261565b91506134c48284612945565b915081905092915050565b60006134db8287613356565b6020820191506134eb8286613356565b6020820191506134fb82856128ad565b60148201915061350b8284613356565b60208201915081905095945050505050565b6000602082019050613532600083018461289e565b92915050565b600060808201905061354d600083018761289e565b61355a602083018661289e565b6135676040830185613347565b818103606083015261357981846128d3565b905095945050505050565b6000604082019050613599600083018561289e565b6135a66020830184613347565b9392505050565b60006020820190506135c260008301846128c4565b92915050565b600060208201905081810360008301526135e2818461290c565b905092915050565b6000602082019050818103600083015261360381612a35565b9050919050565b6000602082019050818103600083015261362381612b41565b9050919050565b6000602082019050818103600083015261364381612ba7565b9050919050565b6000602082019050818103600083015261366381612be7565b9050919050565b6000602082019050818103600083015261368381612c4d565b9050919050565b600060208201905081810360008301526136a381612c8d565b9050919050565b600060208201905081810360008301526136c381612df1565b9050919050565b600060208201905081810360008301526136e381612e57565b9050919050565b6000602082019050818103600083015261370381612ebd565b9050919050565b6000602082019050818103600083015261372381612f63565b9050919050565b6000602082019050818103600083015261374381612fa3565b9050919050565b6000602082019050818103600083015261376381613009565b9050919050565b600060208201905081810360008301526137838161306f565b9050919050565b600060208201905081810360008301526137a3816130af565b9050919050565b600060208201905081810360008301526137c3816130ef565b9050919050565b600060208201905081810360008301526137e3816131fb565b9050919050565b60006020820190508181036000830152613803816132a1565b9050919050565b600060208201905061381f6000830184613347565b92915050565b600060408201905061383a6000830185613347565b818103602083015261384c818461290c565b90509392505050565b6000604051905081810181811067ffffffffffffffff8211171561387c5761387b613bf7565b5b8060405250919050565b600067ffffffffffffffff8211156138a1576138a0613bf7565b5b601f19601f8301169050602081019050919050565b60008190508160005260206000209050919050565b600081519050919050565b600081519050919050565b600082825260208201905092915050565b600082825260208201905092915050565b600081905092915050565b600061391982613a8d565b915061392483613a8d565b9250827fffffffffffffffffffffffffffffffffffffffffffffffffffffffffffffffff0382111561395957613958613b6a565b5b828201905092915050565b600061396f82613a8d565b915061397a83613a8d565b92508261398a57613989613b99565b5b828204905092915050565b60006139a082613a8d565b91506139ab83613a8d565b9250817fffffffffffffffffffffffffffffffffffffffffffffffffffffffffffffffff04831182151516156139e4576139e3613b6a565b5b828202905092915050565b60006139fa82613a8d565b9150613a0583613a8d565b925082821015613a1857613a17613b6a565b5b828203905092915050565b6000613a2e82613a6d565b9050919050565b60008115159050919050565b60007fffffffff0000000000000000000000000000000000000000000000000000000082169050919050565b600073ffffffffffffffffffffffffffffffffffffffff82169050919050565b6000819050919050565b82818337600083830152505050565b60005b83811015613ac4578082015181840152602081019050613aa9565b83811115613ad3576000848401525b50505050565b60006002820490506001821680613af157607f821691505b60208210811415613b0557613b04613bc8565b5b50919050565b6000613b1682613b1d565b9050919050565b6000613b2882613c37565b9050919050565b6000819050919050565b6000613b4482613a8d565b9150613b4f83613a8d565b925082613b5f57613b5e613b99565b5b828206905092915050565b7f4e487b7100000000000000000000000000000000000000000000000000000000600052601160045260246000fd5b7f4e487b7100000000000000000000000000000000000000000000000000000000600052601260045260246000fd5b7f4e487b7100000000000000000000000000000000000000000000000000000000600052602260045260246000fd5b7f4e487b7100000000000000000000000000000000000000000000000000000000600052604160045260246000fd5b6000601f19601f8301169050919050565b60008160601b9050919050565b613c4d81613a23565b8114613c5857600080fd5b50565b613c6481613a35565b8114613c6f57600080fd5b50565b613c7b81613a41565b8114613c8657600080fd5b50565b613c9281613a8d565b8114613c9d57600080fd5b5056fe4142434445464748494a4b4c4d4e4f505152535455565758595a6162636465666768696a6b6c6d6e6f707172737475767778797a303132333435363738392b2f3c73766720786d6c6e733d27687474703a2f2f7777772e77332e6f72672f323030302f73766727207072657365727665417370656374526174696f3d27784d696e594d696e206d656574272076696577426f783d27302030203335302033353027207374796c653d2766696c6c3a2077686974653b20666f6e742d66616d696c793a2073657269663b20666f6e742d73697a653a2031363070783b20666f6e742d7765696768743a20383030273e20203c646566733e3c7061747465726e2069643d276574686572272077696474683d27363227206865696768743d273632272076696577426f783d2730203020343020343027207061747465726e556e6974733d277573657253706163654f6e55736527207061747465726e5472616e73666f726d3d27726f746174652831333529273e3c726563742077696474683d273130302527206865696768743d2731303025272066696c6c3d27726762283138362c203137302c2032343729272f3e3c7061746820643d274d3020304c323020304c32302032304c302032304c3020307a4d332e3920332e394c362031344c31362e312031362e314c313420367a4d32302032304c34302032304c34302034304c32302034304c32302032307a4d32332e392032332e394c32362033344c33362e312033362e314c33342032367a272066696c6c3d27726762283235352c203138342c2032343329272f3e3c7061746820643d274d323620364c33362e3120332e394c33342031344c32332e332031362e377a4d362032364c31362e372032332e334c31342033344c332e392033362e317a272066696c6c3d27726762283235352c203231392c2032343529272f3e3c2f7061747465726e3e3c2f646566733e3c726563742066696c6c3d2775726c282365746865722927206865696768743d2731303025272077696474683d2731303025272f3e3c7465787420783d273530252720793d273534252720646f6d696e616e742d626173656c696e653d276d6964646c652720746578742d616e63686f723d276d6964646c65273e45493c2f746578743e3c2f7376673ea264697066735822122036d1c8ba33800f82bb2d798c862cf9d779279b78a4ed8719fbd6ae834e3034ee64736f6c634300080000333c646566733e3c7061747465726e2069643d277061747465726e272077696474683d27353527206865696768743d273535272076696577426f783d2730203020343020343027207061747465726e556e6974733d277573657253706163654f6e55736527207061747465726e5472616e73666f726d3d27726f7461746528343529273e3c726563742077696474683d273130302527206865696768743d2731303025272066696c6c3d2772676228342c20342c2031333929272f3e3c7061746820643d274d2d342032307632306838762d32307a4d33362032307632306838762d32307a272066696c6c3d277267622833312c2036332c2031373129272f3e3c7061746820643d274d2d31302032362e352068363020763720682d36307a272066696c6c3d277267622839372c2038372c2031383929272f3e3c7061746820643d274d313620307634306838762d34307a272066696c6c3d277267622833312c2036332c2031373129272f3e3c7061746820643d274d2d313020362e356836307637682d36307a272066696c6c3d277267622839372c2038372c2031383929272f3e3c7061746820643d274d2d3420307632306838762d32307a4d333620307632306838762d32307a272066696c6c3d277267622833312c2036332c2031373129272f3e3c2f7061747465726e3e3c2f646566733e3c73766720786d6c6e733d27687474703a2f2f7777772e77332e6f72672f323030302f73766727207072657365727665417370656374526174696f3d27784d696e594d696e206d656574272076696577426f783d273020302033353020333530273e3c7374796c653e202e62617365207b2066696c6c3a2077686974653b20666f6e742d66616d696c793a2073657269663b20666f6e742d73697a653a2031363070783b20666f6e742d7765696768743a3830307d3c2f7374796c653e3c646566733e3c7061747465726e2069643d277061747465726e272077696474683d27323927206865696768743d273239272076696577426f783d2730203020343020343027207061747465726e556e6974733d277573657253706163654f6e55736527207061747465726e5472616e73666f726d3d27726f746174652831333529273e3c726563742077696474683d273130302527206865696768743d2731303025272066696c6c3d277267622832382c203132362c2032313429272f3e3c7061746820643d274d3230203136612032302032302030203020312034302030683461203420342030203020312d382030612031362031362030203020302d3332203061203420342030203020312d382030612031362031362030203020302d33322030682d346120323020323020302030203120343020307a272066696c6c3d27726762283235322c203139362c20323529272f3e3c7061746820643d274d30203238612032302032302030203020312034302030683461203420342030203020312d382030612031362031362030203020302d3332203061203420342030203020312d3820307a272066696c6c3d277267622832342c203130302c2031373129272f3e3c7061746820643d274d3230203536612032302032302030203020312034302030683461203420342030203020312d382030612031362031362030203020302d3332203061203420342030203020312d382030612031362031362030203020302d33322030682d346120323020323020302030203120343020307a272066696c6c3d27726762283235322c203139362c20323529272f3e3c2f7061747465726e3e3c2f646566733e3c646566733e3c7061747465726e2069643d277061747465726e272077696474683d2734362e313927206865696768743d273430272076696577426f783d273020302033342e363431303136313531333737353520333027207061747465726e556e6974733d277573657253706163654f6e55736527207061747465726e5472616e73666f726d3d27726f746174652831333529273e3c726563742077696474683d273130302527206865696768743d2731303025272066696c6c3d277267622835382c2035342c20353529272f3e3c7061746820643d274d2d32302d32306832303076323030682d3230304d33332e37372032352e354c32352e39382032314c31382e31392032352e354c31382e31392033342e354c32352e39382033394c33332e37372033342e357a4d31362e34352032352e354c382e36362032314c302e38372032352e354c302e38372033342e354c382e36362033394c31362e34352033342e357a4d372e37392031302e354c3020364c2d372e37392031302e354c2d372e37392031392e354c302032344c372e37392031392e357a4d31362e34352d342e354c382e36362d394c302e38372d342e354c302e383720342e354c382e363620394c31362e343520342e357a4d33332e37372d342e354c32352e39382d394c31382e31392d342e354c31382e313920342e354c32352e393820394c33332e373720342e357a4d34322e34332031302e354c33342e363420364c32362e38352031302e354c32362e38352031392e354c33342e36342032344c34322e34332031392e357a4d32352e31312031302e354c31372e333220364c392e35332031302e354c392e35332031392e354c31372e33322032344c32352e31312031392e357a272066696c6c3d277267622833352c2033332c20343429272f3e3c7061746820643d274d2d32302d32306832303076323030682d3230304d32342e32312032352e32354c31352e39382032302e354c372e37352032352e32354c372e37352033342e37354c31352e39382033392e354c32342e32312033342e37357a4d362e38392032352e32354c2d312e33342032302e354c2d392e35372032352e32354c2d392e35372033342e37354c2d312e33342033392e354c362e38392033342e37357a4d2d312e37372031302e32354c2d313020352e354c2d31382e32332031302e32354c2d31382e32332031392e37354c2d31302032342e354c2d312e37372031392e37357a4d362e38392d342e37354c2d312e33342d392e354c2d392e35372d342e37354c2d392e353720342e37354c2d312e333420392e354c362e383920342e37357a4d32342e32312d342e37354c31352e39382d392e354c372e37352d342e37354c372e373520342e37354c31352e393820392e354c32342e323120342e37357a4d33322e38372031302e32354c32342e363420352e354c31362e34312031302e32354c31362e34312031392e37354c32342e36342032342e354c33322e38372031392e37357a4d34312e35332032352e32354c33332e332032302e354c32352e30372032352e32354c32352e30372033342e37354c33332e332033392e354c34312e35332033342e37357a4d31352e35352034302e32354c372e33322033352e354c2d302e39312034302e32354c2d302e39312034392e37354c372e33322035342e354c31352e35352034392e37357a4d2d31302e34332032352e32354c2d31382e36362032302e354c2d32362e38392032352e32354c2d32362e38392033342e37354c2d31382e36362033392e354c2d31302e34332033342e37357a4d2d31302e34332d342e37354c2d31382e36362d392e354c2d32362e38392d342e37354c2d32362e383920342e37354c2d31382e363620392e354c2d31302e343320342e37357a4d31352e35352d31392e37354c372e33322d32342e354c2d302e39312d31392e37354c2d302e39312d31302e32354c372e33322d352e354c31352e35352d31302e32357a4d34312e35332d342e37354c33332e332d392e354c32352e30372d342e37354c32352e303720342e37354c33332e3320392e354c34312e353320342e37357a4d33322e38372034302e32354c32342e36342033352e354c31362e34312034302e32354c31362e34312034392e37354c32342e36342035342e354c33322e38372034392e37357a4d2d312e37372034302e32354c2d31302033352e354c2d31382e32332034302e32354c2d31382e32332034392e37354c2d31302035342e354c2d312e37372034392e37357a4d2d31392e30392031302e32354c2d32372e333220352e354c2d33352e35352031302e32354c2d33352e35352031392e37354c2d32372e33322032342e354c2d31392e30392031392e37357a4d2d312e37372d31392e37354c2d31302d32342e354c2d31382e32332d31392e37354c2d31382e32332d31302e32354c2d31302d352e354c2d312e37372d31302e32357a4d33322e38372d31392e37354c32342e36342d32342e354c31362e34312d31392e37354c31362e34312d31302e32354c32342e36342d352e354c33322e38372d31302e32357a4d35302e31392031302e32354c34312e393620352e354c33332e37332031302e32354c33332e37332031392e37354c34312e39362032342e354c35302e31392031392e37357a4d31352e35352031302e32354c372e333220352e354c2d302e39312031302e32354c2d302e39312031392e37354c372e33322032342e354c31352e35352031392e37357a272066696c6c3d27726762283235322c203231342c20323129272f3e3c2f7061747465726e3e3c2f646566733e3c646566733e3c7061747465726e2069643d277061747465726e272077696474683d27393927206865696768743d273939272076696577426f783d2730203020343020343027207061747465726e556e6974733d277573657253706163654f6e55736527207061747465726e5472616e73666f726d3d27726f746174652831333529273e3c726563742077696474683d273130302527206865696768743d2731303025272066696c6c3d277267622832382c203132362c2032313429272f3e3c636972636c652063783d2730272063793d2732302720723d2732272066696c6c3d27726762283235322c203139362c20323529272f3e3c636972636c652063783d273430272063793d2732302720723d2732272066696c6c3d27726762283235322c203139362c20323529272f3e3c7061746820643d276d20313820313620683420763820682d347a272066696c6c3d277267622832342c203130302c2031373129272f3e3c2f7061747465726e3e3c2f646566733e3c646566733e3c7061747465726e2069643d277061747465726e272077696474683d2733332e323527206865696768743d273537272076696577426f783d2730203020333520363027207061747465726e556e6974733d277573657253706163654f6e55736527207061747465726e5472616e73666f726d3d27726f746174652831333529273e3c726563742077696474683d273130302527206865696768743d2731303025272066696c6c3d27726762283230342c20302c20333429272f3e3c7061746820643d274d34322e34332033352e354c34322e34332034342e354c32362e38352033352e354c33342e36342033314c33342e36342034394c32362e38352034342e354c33342e36342034307a27207374726f6b652d6c696e656a6f696e3d276d69746572272066696c6c3d277267622831372c2031372c203029272f3e3c7061746820643d274d32352e31312034352e354c32352e31312035342e354c392e35332034352e354c31372e33322034314c31372e33322035394c392e35332035342e354c31372e33322035307a27207374726f6b652d6c696e656a6f696e3d276d69746572272066696c6c3d277267622831372c2031372c203029272f3e3c7061746820643d274d372e37392033352e354c372e37392034342e354c2d372e37392033352e354c302033314c302034394c2d372e37392034342e354c302034307a27207374726f6b652d6c696e656a6f696e3d276d69746572272066696c6c3d277267622831372c2031372c203029272f3e3c7061746820643d274d372e37392031352e354c372e37392032342e354c2d372e37392031352e354c302031314c302032394c2d372e37392032342e354c302032307a27207374726f6b652d6c696e656a6f696e3d276d69746572272066696c6c3d277267622831372c2031372c203029272f3e3c7061746820643d274d32352e313120352e354c32352e31312031342e354c392e353320352e354c31372e333220314c31372e33322031394c392e35332031342e354c31372e33322031307a27207374726f6b652d6c696e656a6f696e3d276d69746572272066696c6c3d277267622831372c2031372c203029272f3e3c7061746820643d274d34322e34332031352e354c34322e34332032342e354c32362e38352031352e354c33342e36342031314c33342e36342032394c32362e38352032342e354c33342e36342032307a27207374726f6b652d6c696e656a6f696e3d276d69746572272066696c6c3d277267622831372c2031372c203029272f3e3c7061746820643d274d33342e36342034384c34312e35372034344c32372e37312033364c32372e37312034344c34312e35372033364c33342e36342033324c33342e36342034307a27207374726f6b652d6c696e656a6f696e3d276d69746572272066696c6c3d27726762283235352c203235352c203029272f3e3c7061746820643d274d31372e33322035384c32342e32352035344c31302e33392034364c31302e33392035344c32342e32352034364c31372e33322034324c31372e33322035307a27207374726f6b652d6c696e656a6f696e3d276d69746572272066696c6c3d27726762283235352c203235352c203029272f3e3c7061746820643d274d302034384c362e39332034344c2d362e39332033364c2d362e39332034344c362e39332033364c302033324c302034307a27207374726f6b652d6c696e656a6f696e3d276d69746572272066696c6c3d27726762283235352c203235352c203029272f3e3c7061746820643d274d302032384c362e39332032344c2d362e39332031364c2d362e39332032344c362e39332031364c302031324c302032307a27207374726f6b652d6c696e656a6f696e3d276d69746572272066696c6c3d27726762283235352c203235352c203029272f3e3c7061746820643d274d31372e33322031384c32342e32352031344c31302e333920364c31302e33392031344c32342e323520364c31372e333220324c31372e33322031307a27207374726f6b652d6c696e656a6f696e3d276d69746572272066696c6c3d27726762283235352c203235352c203029272f3e3c7061746820643d274d33342e36342032384c34312e35372032344c32372e37312031364c32372e37312032344c34312e35372031364c33342e36342031324c33342e36342032307a27207374726f6b652d6c696e656a6f696e3d276d69746572272066696c6c3d27726762283235352c203235352c203029272f3e3c7061746820643d274d32322e35322032374c32322e35322033334c31322e31322032374c31372e33322032344c31372e33322033364c31322e31322033334c31372e33322033307a27207374726f6b652d6c696e656a6f696e3d276d69746572272066696c6c3d277267622831372c2031372c203029272f3e3c2f7061747465726e3e3c2f646566733e3c646566733e3c7061747465726e2069643d277061747465726e272077696474683d27363227206865696768743d273632272076696577426f783d2730203020343020343027207061747465726e556e6974733d277573657253706163654f6e55736527207061747465726e5472616e73666f726d3d27726f746174652831333529273e3c726563742077696474683d273130302527206865696768743d2731303025272066696c6c3d27726762283138362c203137302c2032343729272f3e3c7061746820643d274d3020304c323020304c32302032304c302032304c3020307a4d332e3920332e394c362031344c31362e312031362e314c313420367a4d32302032304c34302032304c34302034304c32302034304c32302032307a4d32332e392032332e394c32362033344c33362e312033362e314c33342032367a272066696c6c3d27726762283235352c203138342c2032343329272f3e3c7061746820643d274d323620364c33362e3120332e394c33342031344c32332e332031362e377a4d362032364c31362e372032332e334c31342033344c332e392033362e317a272066696c6c3d27726762283235352c203231392c2032343529272f3e3c2f7061747465726e3e3c2f646566733e3c646566733e3c7061747465726e2069643d277061747465726e272077696474683d27323527206865696768743d273235272076696577426f783d2730203020343020343027207061747465726e556e6974733d277573657253706163654f6e55736527207061747465726e5472616e73666f726d3d27273e3c726563742077696474683d273130302527206865696768743d2731303025272066696c6c3d277267622834362c2035392c2031313029272f3e3c636972636c652063783d273230272063793d2732302720723d2733272066696c6c3d27726762283235312c203231362c2031313829272f3e3c636972636c652063783d273330272063793d2732302720723d27312e35272066696c6c3d27726762283231342c203135382c20343629272f3e3c636972636c652063783d2732332e3039272063793d2732392e35312720723d27312e35272066696c6c3d27726762283231342c203135382c20343629272f3e3c636972636c652063783d2731312e3931272063793d2732352e38382720723d27312e35272066696c6c3d27726762283231342c203135382c20343629272f3e3c636972636c652063783d2731312e3931272063793d2731342e31322720723d27312e35272066696c6c3d27726762283231342c203135382c20343629272f3e3c636972636c652063783d2732332e3039272063793d2731302e34392720723d27312e35272066696c6c3d27726762283231342c203135382c20343629272f3e3c636972636c652063783d273330272063793d2732302720723d27312e35272066696c6c3d27726762283231342c203135382c20343629272f3e3c2f7061747465726e3e3c2f646566733e3c726563742066696c6c3d2775726c28237061747465726e2927206865696768743d2731303025272077696474683d2731303025272f3e3c7465787420783d273530252720793d273534252720636c6173733d27626173652720646f6d696e616e742d626173656c696e653d276d6964646c652720746578742d616e63686f723d276d6964646c65273e3c646566733e3c7061747465726e2069643d277061747465726e272077696474683d27323027206865696768743d273230272076696577426f783d2730203020343020343027207061747465726e556e6974733d277573657253706163654f6e55736527207061747465726e5472616e73666f726d3d27273e3c726563742077696474683d273130302527206865696768743d2731303025272066696c6c3d277267622833362c2033322c20333629272f3e3c7061746820643d274d302032304c32302034304c34302032304c323020304c302032307a272066696c6c3d27726762283139312c20302c203029272f3e3c7061746820643d274d302032304c32302032304c34302032304c32302032307a272066696c6c3d277267622837392c203230392c2031393729272f3e3c2f7061747465726e3e3c2f646566733e3c646566733e3c7061747465726e2069643d277061747465726e272077696474683d27323827206865696768743d273238272076696577426f783d2730203020343020343027207061747465726e556e6974733d277573657253706163654f6e55736527207061747465726e5472616e73666f726d3d27273e3c726563742077696474683d273130302527206865696768743d2731303025272066696c6c3d27726762283231342c203136342c203229272f3e3c7061746820643d274d382e3220382e32612031312e382031312e382030203020312032332e362030612031312e382031312e3820302030203120302032332e36612031312e382031312e382030203020312d32332e362030612031312e382031312e3820302030203120302d32332e364d31302031376120332033203020302030203020366120372037203020302031203720376120332033203020302030203620306120372d3720302030203120372d37612033203320302030203020302d36612d372d372030203020312d372d3761203320332030203020302d362030612d3720372030203020312d3720377a272066696c6c3d27726762283233332c203137392c203229272f3e3c7061746820643d274d3130203130612031302031302030203020312032302030612031302031302030203020312030203230612031302031302030203020312d323020306120313020313020302030203120302d32304d31302031376120332033203020302030203020366120372037203020302031203720376120332033203020302030203620306120372d3720302030203120372d37612033203320302030203020302d36612d372d372030203020312d372d3761203320332030203020302d362030612d3720372030203020312d3720377a272066696c6c3d27726762283235322c203139342c203329272f3e3c2f7061747465726e3e3c2f646566733e3c646566733e3c7061747465726e2069643d277061747465726e272077696474683d27353027206865696768743d273530272076696577426f783d2730203020343020343027207061747465726e556e6974733d277573657253706163654f6e55736527207061747465726e5472616e73666f726d3d27273e3c726563742077696474683d273130302527206865696768743d2731303025272066696c6c3d27726762283133322c2038362c20363029272f3e3c7061746820643d274d30203430682d3130762d36306836304c343020304c33342036682d32387632387a272066696c6c3d277267622836372c2032362c20323629272f3e3c7061746820643d274d343020307631306836307636304c302034304c36203334683238762d32387a272066696c6c3d277267622839372c2036382c20343629272f3e3c7061746820643d274d343020307631306836307636304c302034304c30203430683430762d34307a272066696c6c3d277267622836372c2032362c20323629272f3e3c7061746820643d274d30203430682d3130762d36306836304c343020304c34302030682d34307634307a272066696c6c3d277267622839372c2036382c20343629272f3e3c2f7061747465726e3e3c2f646566733e3c72656374206865696768743d2731303025272077696474683d2731303025272066696c6c3d2775726c28237061747465726e2927202f3e3c646566733e3c7061747465726e2069643d277061747465726e272077696474683d27323827206865696768743d273238272076696577426f783d2730203020343020343027207061747465726e556e6974733d277573657253706163654f6e55736527207061747465726e5472616e73666f726d3d27273e3c726563742077696474683d273130302527206865696768743d2731303025272066696c6c3d2772676228302c20302c203029272f3e3c2f7061747465726e3e3c2f646566733e3c646566733e3c7061747465726e2069643d277061747465726e272077696474683d2734302e3727206865696768743d273437272076696577426f783d273020302036392e3238323033323330323735353120383027207061747465726e556e6974733d277573657253706163654f6e55736527207061747465726e5472616e73666f726d3d27726f7461746528343529273e3c726563742077696474683d273130302527206865696768743d2731303025272066696c6c3d27726762283132372c20352c20383829272f3e3c7061746820643d274d38362e362037304c36392e32382038304c35312e39362037304c35312e39362035304c36392e32382034304c38362e362035304c38362e362037302038362e362035304c36392e32382034304c35312e39362035304c35312e39362037304c36392e32382038304c38362e362037304c38362e362035307a27207374726f6b652d6c696e656a6f696e3d276d69746572272066696c6c3d27726762283235332c203231372c2031373629272f3e3c7061746820643d274d35312e39362039304c33342e3634203130304c31372e33322039304c31372e33322037304c33342e36342036304c35312e39362037304c35312e39362039302035312e39362037304c33342e36342036304c31372e33322037304c31372e33322039304c33342e3634203130304c35312e39362039304c35312e39362037307a27207374726f6b652d6c696e656a6f696e3d276d69746572272066696c6c3d27726762283235332c203231372c2031373629272f3e3c7061746820643d274d31372e33322037304c302038304c2d31372e33322037304c2d31372e33322035304c302034304c31372e33322035304c31372e33322037302031372e33322035304c302034304c2d31372e33322035304c2d31372e33322037304c302038304c31372e33322037304c31372e33322035307a27207374726f6b652d6c696e656a6f696e3d276d69746572272066696c6c3d27726762283235332c203231372c2031373629272f3e3c7061746820643d274d31372e33322033304c302034304c2d31372e33322033304c2d31372e33322031304c3020304c31372e33322031304c31372e33322033302031372e33322031304c3020304c2d31372e33322031304c2d31372e33322033304c302034304c31372e33322033304c31372e33322031307a27207374726f6b652d6c696e656a6f696e3d276d69746572272066696c6c3d27726762283235332c203231372c2031373629272f3e3c7061746820643d274d35312e39362031304c33342e36342032304c31372e33322031304c31372e33322d31304c33342e36342d32304c35312e39362d31304c35312e39362031302035312e39362d31304c33342e36342d32304c31372e33322d31304c31372e33322031304c33342e36342032304c35312e39362031304c35312e39362d31307a27207374726f6b652d6c696e656a6f696e3d276d69746572272066696c6c3d27726762283235332c203231372c2031373629272f3e3c7061746820643d274d38362e362033304c36392e32382034304c35312e39362033304c35312e39362031304c36392e323820304c38362e362031304c38362e362033302038362e362031304c36392e323820304c35312e39362031304c35312e39362033304c36392e32382034304c38362e362033304c38362e362031307a27207374726f6b652d6c696e656a6f696e3d276d69746572272066696c6c3d27726762283235332c203231372c2031373629272f3e3c7061746820643d274d34302e372034332e354c34302e372035302e354c33342e36342034374c32382e35382035302e354c32382e35382034332e354c32322e35322034304c32382e35382033362e354c32382e35382032392e354c33342e36342033334c34302e372032392e354c34302e372033362e354c34362e37372034304c34302e372034332e352033382e31342033332e39344c33342e36342034332e38384c33312e31342033332e39344c33382034312e39344c32372e36342034304c33382033382e30364c33312e31342034362e30364c33342e36342033362e31324c33382e31342034362e30364c33312e32382033382e30364c34312e36342034304c33312e32382034312e39344c33382e31342033332e39347a27207374726f6b652d6c696e656a6f696e3d276d69746572272066696c6c3d27726762283235332c203231372c2031373629272f3e3c2f7061747465726e3e3c2f646566733e",
  "linkReferences": {},
  "deployedLinkReferences": {}
}